:0400000048EF0AF0CB
:1000080000C01FF001C01EF002C01DF004C01CF0AB
:1000180005C01BF008C01AF009C019F00AC018F092
:100028000BC017F00CC016F00DC015F0E1CF22F090
:10003800E2CF23F0E9CF20F0EACF21F09EAA13D037
:10004800C00E0401426F030E436F240E446F020E6C
:10005800456F0B0E466F3EEC04F09E9A010E0001B0
:10006800E46F000EE56FA4AA18D0C00E0401426F19
:10007800030E436F2A0E446F020E456F0B0E466F38
:10008800EEEC04F0010E0201286F000E296FA49A0D
:10009800020E0001E46F000EE56FA1A22AD0A19222
:1000A8003C0EB36EB00EB26E304A312A000E3118D3
:1000B80002E1050E30180BE12A4A2B2A244A252A88
:1000C800284A292A0201264B272B306A316A000E5A
:1000D800291802E13C0E28180CE1286A296A364AD8
:1000E800372A010E325E000E335A010E345E000EBE
:1000F800355AF2A206D0F292420E0D6E0D2EFED7A0
:100108000000F2A055D14E0E0C6EEB0E0D6E0D2EAA
:10011800FED70C2EFCD7818281848196F00E811443
:100128000301196F1A6B000E1A17000E1A6F195176
:10013800F008006E1AC301F0000E0156100E046E8E
:10014800000E056EE4DB00C019F301C01AF3800E3F
:10015800026E800E0118025C02E10050000816E2EF
:10016800000E03011A1902E1040E191904E1030E25
:10017800196F000E1A6F000E1A1902E1080E1919EC
:1001880004E1040E196F000E1A6F7ED003018182FC
:1001980081948186F00E8114196F1A6B000E1A175C
:1001A800000E1A6F1951F008006E1AC301F0000E04
:1001B8000156100E046E000E056EA9DB00C019F37F
:1001C80001C01AF3800E026E800E0118025C02E173
:1001D800005000081AE2000E03011A1902E1040E89
:1001E800191904E1030E196F000E1A6F000E1A197F
:1001F80002E1080E191904E1040E196F000E1A6FB6
:10020800040E1927000E1A233FD00301819281841E
:100218008186F00E8114196F1A6B000E1A17000EE2
:100228001A6F1951F008006E1AC301F0000E01563A
:10023800100E046E000E056E6ADB00C019F301C0D3
:100248001AF3800E026E800E0118025C02E1005063
:1002580000081AE2000E03011A1902E1040E191926
:1002680004E1030E196F000E1A6F000E1A1902E14D
:10027800080E191904E1040E196F000E1A6F080E02
:100288001927000E1A2300D081928194819640D0BC
:100298000301140E196F000E1A6F89D00B0E196F17
:1002A800000E1A6F84D0070E196F000E1A6F7FD0D8
:1002B800040E196F000E1A6F7AD0010E196F000E16
:1002C8001A6F75D0196B1A6B72D0080E196F000E61
:1002D8001A6F6DD0050E196F000E1A6F68D0020ED6
:1002E800196F000E1A6F63D00C0E196F000E1A6F7B
:1002F8005ED0090E196F000E1A6F59D0060E196FCD
:10030800000E1A6F54D0030E196F000E1A6F4FD0DB
:100318000301000E1A1902E1000E1919B9E0000EC6
:100328001A1902E1010E1919B9E0000E1A1902E1B1
:10033800020E1919B8E0000E1A1902E1030E191974
:10034800B7E0000E1A1902E1040E1919B6E0000E02
:100358001A1902E1050E1919B5E0000E1A1902E181
:10036800060E1919B2E0000E1A1902E1070E191942
:10037800B1E0000E1A1902E1080E1919B0E0000EDA
:100388001A1902E1090E1919AFE0000E1A1902E153
:100398000A0E1919AEE0000E1A1902E10B0E19190E
:1003A800ADE0000E1A1902E10C0E1919ACE0F2903A
:1003B8001FC000F01EC001F01DC002F01CC004F0F8
:1003C8001BC005F01AC008F019C009F018C00AF0DF
:1003D80017C00BF016C00CF015C00DF020C0E9FFD7
:0E03E80021C0EAFF22C0E1FF23C0E2FF1100A6
:1003F6000F0E0C6E470E0D6E0D2EFED70C2EFCD773
:06040600000000001200DE
:0A040C00210E0D6E0D2EFED712001A
:10041600086A096A100E0C6E013408360936045053
:10042600085E0550D8A0053C095ED8B007D0045038
:1004360008260550D8B0053C0926D8900036013666
:060446000C2EEAD71200A3
:06044C0000000000120098
:100452003BC4C9FF016A0150000A05E1000EC7B0A2
:0C046200010E016EF8D7C9CF01F01200A6
:10046E0004013F6B050E3F5D0AE23F513D25E16EF3
:10047E00000E3E21E26E200EE66E3F2BF3D73F516B
:10048E003D25E16E000E3E21E26EE66A3F073F51CA
:10049E003D25406F000E3E21416F0A0E046E000E88
:1004AE00056E3BC400F03CC401F0AEDF08C000F0A6
:1004BE0009C001F0300E002640C4E1FF41C4E2FF46
:1004CE0000C0E6FF0A0E046E000E056E3BC400F07F
:1004DE003CC401F099DF00C03BF401C03CF4000EB7
:1004EE00011802E1000E001801E102D03F07CFD73C
:0204FE001200EA
:0C0500000E0E0D6E0D2EFED70000120036
:10050C0004013BBF02D0839E01D0838E3BBD02D041
:10051C00839C01D0838C3BBB02D0839A01D0838A0D
:10052C003BB902D0839801D083880301FDB102D07E
:10053C00838401D08394838683DF839604013BB745
:10054C0002D0839E01D0838E3BB502D0839C01D018
:10055C00838C3BB302D0839A01D0838A3BB102D007
:10056C00839801D083880301FDB102D0838401D02C
:10057C008394838665DF8396FDA102D036DF01D09C
:04058C003FDF12003B
:100590000401376B386B31C439F432C43AF4800E3D
:1005A0003219006E800E005C02E1000E315D0BE23C
:1005B000010E376F000E386F31510008396F32C4A9
:1005C0003AF4000E3A5739C43BF43AC43CF433C40D
:1005D0003DF434C43EF44BDF060E356F000E366F2B
:1005E000000E006E3651005C02E13551000819E240
:1005F00035513325E16E36513421E26E010E355D01
:10060000006E000E3659016E00503325E96E015020
:100610003421EA6EEECFE6FF010E355F000E365B49
:10062000DFD733C4E1FF34C4E2FF200EE66E37515A
:1006300038111AE0356B366B35513325E96E36517A
:100640003421EA6EEE50200A03E1354B362BF4D705
:10065000010E355F000E365B35513325E16E3651A4
:0A0660003421E26E2D0EE66E12004A
:10066A00C26A0201471D006E0050C116070EC01271
:10067A00C08E31C400F00036009000360090005061
:10068A00C212C28038DFC282C2A201D0FDD7C4CF53
:10069A0001F0006AC3500012000E0112C29012004B
:0E06AA00ACB202D00000FCD731C4ADFF12008C
:1006B800829031C43BF4C9DE32C43BF4C6DE82808A
:0206C80012001E
:1006CA00A6A202D00000FCD7A69C32C4AAFF31C45D
:1006DA00A9FF33C4A8FFA69EA684F2CF00F0F29E1B
:1006EA00550EA76EAA0EA76EA68200BE02D0F29E73
:1006FA0001D0F28EA694A1B802D00000FCD7A1982E
:02070A001200DB
:10070C00A69C32C4AAFF31C4A9FFA69EA680A8CF7E
:04071C0000F01200D7
:1007200010D0800E0401316F1AD0C00E316F17D077
:10073000940E316F14D0D40E316F11D0800E316F02
:100740000ED004013151010AECE03151020AEDE012
:100750003151030AEDE03151040AEDE0EFD73205E3
:10076000006E3151002600C031F40301FD8100C04C
:100770003BF4CCDEFD9133C43BF4C8DEFD811200B6
:100780000B6A0A6A096A00500402F4CF09F0F3CF39
:1007900008F001500502F4CF0BF0F3CF0AF000503F
:1007A0000502F3500926F4500A22E86A0B22015090
:1007B0000402F3500926F4500A22E86A0B2208C00A
:1007C00000F009C001F00AC002F00BC003F01200F3
:0E07D0000301FD9131C43BF499DEFD8112005E
:1007DE00AECF01F0ABA202D0AB98AB8801C000F057
:0207EE001200F7
:0A07F000000EA4BA010E006E120004
:0A07FA00000E9EBA010E006E120000
:0E0804006CB202D00000FCD731C46DFF1200B0
:100812000134083609360450085E0550D8A0053C5C
:10082200095E003601360F0E0C6E013408360936A9
:10083200045000A006D0085E0550D8A0053C095E11
:1008420005D008260550D8B0053C092600360136E9
:100852000C2EEBD700B006D0045008260550D8B0B5
:08086200053C0926000012000C
:10086A006ECF01F06BA202D06B986B8801C000F0CA
:02087A0012006A
:10087C000401486B496B465342E04651FF0AD8A429
:10088C004607B5DF0050000A01E1FBD7A2DF00C02C
:10089C0047F4040148514225E16E000E4321E26EFB
:1008AC0000C0E6FF482B49514425E96E000E452156
:1008BC00EA6EEE50471902E1492B09D0496B44C44A
:1008CC00E9FF45C4EAFFEE504719D8B4492B49510A
:1008DC004425E96E000E4521EA6EEE50000A0EE149
:1008EC004951485D006E016A000E015A00504225C4
:1008FC00E16E01504321E26EE66A06D0BCD742C4D9
:0A090C00E1FF43C4E2FFE66A1200B7
:100916000450000A08E10550000A05E1FF0E006ECA
:100926007F0E016E57D00D6A096A086A01500010E1
:10093600D8B4000C015005180A6E0ABE0D1E0B6ACB
:1009460005AE05D0041E051E042AD8B4052A01AE3C
:1009560005D0001E011E002AD8B4012A0150051038
:100966000A6E0ABE10D052DF0BB020D00DAE000CBE
:10097600001E011E002AD8B4012A081E091E082AD4
:10098600D8B4092A000C05AE0DD001BE07D001501F
:10099600096E0050086E016A006AE8D7016A006AAB
:1009A600002A000C011E001E0B2ADDD7082AD8B427
:1009B600092A0450085CD8A4D9D70550095CD8A4E4
:1009C600D5D7096A086A002AD8B4012A01AECED75B
:0609D6000000FF0C1200FE
:1009DC000401486B496B465342E04651FF0AD8A4C8
:1009EC00460700DF0050000A01E1FBD738DF00C0EA
:1009FC0047F4040148514225E16E000E4321E26E9A
:100A0C0000C0E6FF482B49514425E96E000E4521F4
:100A1C00EA6EEE50471902E1492B09D0496B44C4E8
:100A2C00E9FF45C4EAFFEE504719D8B4492B4951A8
:100A3C004425E96E000E4521EA6EEE50000A0EE1E7
:100A4C004951485D006E016A000E015A0050422562
:100A5C00E16E01504321E26EE66A06D0BCD742C477
:0A0A6C00E1FF43C4E2FFE66A120056
:100A760010D0800E04012D6F1AD0C00E2D6F17D026
:100A8600940E2D6F14D0D40E2D6F11D0800E2D6FB5
:100A96000ED004012D51010AECE02D51020AEDE0C1
:100AA6002D51030AEDE02D51040AEDE0EFD72E0596
:100AB600006E2D51002600C02DF400C03BF423DD4E
:100AC600FD910401006B00512F25E96E000E3021C7
:100AD600EA6EEE520CE000512F25E96E000E302131
:100AE600EA6EEECF31F471DE0401002BECD7030180
:040AF600FD8112006C
:100AFA00570E04013B6F05DD0401006B0051070826
:100B0A0012E30B0E0025F66E420EF76E000EF72268
:100B1A00000EF86E000EF8220900F5CF31F453DE0C
:100B2A000401002BEBD7020E3B6FEBDC010E040134
:0E0B3A00316F010E326F0B0E336FEDDD1200C6
:100B4800680E04013B6FDEDC0401006B00510708EE
:100B580012E3EB0E0025F66E410EF76E000EF7223B
:100B6800000EF86E000EF8220900F5CF31F42CDEE5
:100B78000401002BEBD7020E3B6FC4DC020E04010C
:0E0B8800316F010E326F050E336FC6DD1200A5
:100B9600400E04013B6FB7DC0401006B00510708EF
:100BA60012E3CB0E0025F66E410EF76E000EF7220D
:100BB600000EF86E000EF8220900F5CF31F405DEBE
:100BC6000401002BEBD7020E3B6F9DDC020E0401E5
:0C0BD600316F010E326F336BA0DD120096
:100BE200600E04013B6F91DC0401006B00510708A9
:100BF20012E3130E0025F66E420EF76E000EF72278
:100C0200000EF86E000EF8220900F5CF31F4DFDD98
:100C12000401002BEBD7020E3B6F77DC020E0401BE
:0E0C2200316F010E326F040E336F79DD120058
:100C300004011851410A05E184968498849A849CA1
:100C4000848E1851420A05E184968498849A848C93
:100C5000849E1851430A05E184968488849A849C72
:100C6000849E1851440A05E184968498848A849C61
:100C7000849E1851450A05E184868498849A849C50
:100C8000849E1951460A0AE1316BDC0E326F14DD85
:100C9000030E0401316FDC0E326F0EDD04011951B9
:100CA000470A0AE1316BA50E326F06DD030E04011F
:100CB000316FA50E326F00DD04011951480A0AE1B7
:100CC000316B6E0E326FF8DC030E0401316F6E0E65
:100CD000326FF2DC04011951490A0AE1316B370E17
:100CE000326FEADC030E0401316F370E326FE4DC41
:100CF00004011A514A0A0BE1010E316FDC0E326F0A
:100D0000DBDC050E0401316FDC0E326FD5DC040133
:100D10001A514B0A0BE1010E316FA50E326FCCDC7C
:100D2000050E0401316FA50E326FC6DC04011A51A5
:100D30004C0A0BE1010E316F6E0E326FBDDC050EF9
:100D40000401316F6E0E326FB7DC04011A514D0A87
:100D50000BE1010E316F370E326FAEDC050E040170
:0A0D6000316F370E326FA8DC12006D
:100D6A00500E04013B6F86EC02F00401006B005147
:100D7A00070812E3D30E0025F66E410EF76E000E39
:100D8A00F722000EF86E000EF8220900F5CF31F4B2
:100D9A001ADD0401002BEBD7020E3B6F86EC02F042
:100DAA00020E0401316F010E326F020E336FB3DC93
:020DBA00120025
:100DBC000900F5CFE6FF0006FBE10106F9E11200A0
:100DCC00480E04013B6F86EC02F00401006B0051ED
:100DDC00070812E3DB0E0025F66E410EF76E000ECF
:100DEC00F722000EF86E000EF8220900F5CF31F450
:100DFC00E9DC0401002BEBD7020E3B6F86EC02F012
:100E0C00020E0401316F010E326F010E336F82DC62
:020E1C001200C2
:100E1E0004012F6B2DC4E9FF2EC4EAFFEECF00F4C0
:100E2E000051000A0EE000C431F438DC04012F2B0F
:100E3E002F512D25E96E000E2E21EA6EEECF00F415
:040E4E00EFD71200C8
:100E520004012F6B2DC4E9FF2EC4EAFFEECF00F48C
:100E62000051000A0EE000C431F4CBDC04012F2B48
:100E72002F512D25E96E000E2E21EA6EEECF00F4E1
:040E8200EFD7120094
:100E8600700E04013B6F86EC02F00401006B00510A
:100E9600070812E3FB0E0025F66E410EF76E000EF4
:100EA600F722000EF86E000EF8220900F5CF31F495
:100EB6008CDC0401002BEBD7020E3B6F86EC02F0B4
:100EC600020E0401316F020E326F060E336F25DCFF
:020ED600120008
:100ED80086902DC43BF429EC02F02EC43BF429EC97
:060EE80002F086801200FA
:100EEE00580E04013B6F86EC02F00401006B0051BA
:100EFE00070812E3BB0E0025F66E410EF76E000ECC
:100F0E00F722000EF86E000EF8220900F5CF31F42C
:100F1E0058DC0401002BEBD7020E3B6F86EC02F07F
:100F2E00020E0401316F010E326F030E336F90EC1F
:040F3E0003F01200AA
:100F4200FF0E0401116FFF0E126FFF0E136FFF0EE3
:100F5200146F520E0D6F040E0E6F3B0E0F6F040EC8
:100F6200106F949A94969488C66A400EC76EC68A89
:020F720012006B
:0A0F74009494CA840C0EBD12120002
:100F7E00470E04013B6F86EC02F00401006B00513A
:100F8E00070812E3E30E0025F66E410EF76E000E13
:100F9E00F722000EF86E000EF8220900F5CF31F49C
:100FAE0010DC0401002BEBD7020E3B6F86EC02F037
:100FBE00020E0401316F030E326F090E336F90EC87
:040FCE0003F012001A
:100FD2000401316B35EC03F000C020F401C021F4B0
:100FE20000C031F401C032F4220E0401336F040E4A
:100FF200346FC8EC02F0010E316F35EC03F000C023
:10100200FEF301C0FFF300C031F401C032F4220E3E
:0E1012000401336F040E346FC8EC02F01200BC
:10102000CB50010F006E016A000E012200C404F0D3
:10103000000E056EC0EC03F0060E026E00C004F058
:1010400001C005F0025005E005320432059EFF0F95
:10105000FAD7040E016E04C000F0015004E000361F
:101060000090FF0FFBD7300E0014036E04C000F099
:1010700005C001F001320032019E01320032019EB2
:0E10800000C0BEFF0F0EBD160350BD121200C1
:10108E00959695949598959A959C959E839683940E
:10109E00839E839C839A8398FBEC01F0FBEC01F01A
:1010AE00FBEC01F0838A8388838626EC02F083961C
:1010BE00FBEC01F0838626EC02F08396FBEC01F04C
:1010CE00838626EC02F08396FBEC01F083988386F0
:1010DE0026EC02F08396FBEC01F0838626EC02F000
:1010EE008396839A838E838626EC02F08396FBEC9E
:1010FE0001F0839E8388838626EC02F08396839884
:10110E00838626EC02F08396FBEC01F0838626ECB8
:10111E0002F083968388838626EC02F08396FBEC9E
:10112E0001F08398838626EC02F08396838E838C5F
:10113E00838A8388838626EC02F08396FBEC01F08B
:06114E000301FD81120007
:101154007F0E04013B6F86EC02F00401006B00512A
:10116400070813E3030E0025F66E420EF76E000E19
:10117400F722000EF86E000EF8220900F5CF31F4C4
:10118400E8EC03F00401002BEAD7020E3B6F86EC77
:1011940002F0020E0401316F030E326F080E336F3A
:0611A40090EC03F01200C4
:1011AA00780E04013B6F86EC02F00401006B0051DB
:1011BA00070813E3F30E0025F66E410EF76E000ED4
:1011CA00F722000EF86E000EF8220900F5CF31F46E
:1011DA00E8EC03F00401002BEAD7020E3B6F86EC21
:1011EA0002F0020E0401316F040E326F070E336FE4
:0611FA0090EC03F012006E
:101200004F0E04013B6F86EC02F00401006B0051AD
:10121000070813E3C30E0025F66E410EF76E000EAD
:10122000F722000EF86E000EF8220900F5CF31F417
:10123000E8EC03F00401002BEAD7020E3B6F86ECCA
:1012400002F0010E0401316F010E326F0A0E336F8E
:0612500090EC03F0120017
:08125600BE6ABD98BD9A1200AA
:10125E00AA0E0401096F060E0A6F310E0B6F040EF3
:10126E000C6FDE0E056F070E066F000E076F000E79
:10127E00086FFA0E016F070E026F000E036F000E5D
:10128E00046FFF0E0301F96FFF0EFA6F000EFB6F76
:10129E00000EFC6FAC8A900EAB6E948E949C9EAA40
:0A12AE0003D0AECF00F0FBD7120012
:1012B80025C331F426C332F486EC03F000C01DF3D5
:1012C800000E03011E6F820E0C6EDD0E0D6E0D2ECC
:1012D800FED70C2EFCD700000000000E1E1902E1FC
:1012E800FF0E1D190EE125C331F426C332F45A0E40
:1012F8000401336F65EC03F05A0E03011D6F000EF5
:101308001E6F23C331F424C332F486EC03F000C00B
:1013180027F3000E286F820E0C6EDD0E0D6E0D2E5B
:10132800FED70C2EFCD700000000000E281902E1A1
:10133800FF0E27190EE123C331F424C332F4010E42
:101348000401336F65EC03F0010E0301276F000EF3
:10135800286F21C331F422C332F486EC03F000C0B5
:101368001FF3000E206F820E0C6EDD0E0D6E0D2E1B
:10137800FED70C2EFCD700000000000E201902E159
:10138800FF0E1F190EE121C331F422C332F4780E87
:101398000401336F65EC03F0780E03011F6F000E34
:1013A800206F15C331F416C332F486EC03F000C085
:1013B8001BF3000E1C6F820E0C6EDD0E0D6E0D2ED3
:1013C800FED70C2EFCD700000000000E1C1902E10D
:1013D800FF0E1B190EE115C331F416C332F4780E53
:1013E8000401336F65EC03F0780E03011B6F000EE8
:1013F8001C6F13C331F414C332F486EC03F000C03D
:1014080017F3000E186F820E0C6EDD0E0D6E0D2E8A
:10141800FED70C2EFCD700000000000E181902E1C0
:10142800FF0E17190BE113C331F414C332F404018E
:10143800336B65EC03F00301176B186B11C331F4C0
:1014480012C332F486EC03F000C00FF3000E106FE5
:10145800820E0C6EDD0E0D6E0D2EFED70C2EFCD7F7
:1014680000000000000E101902E1FF0E0F190BE139
:1014780011C331F412C332F40401336B65EC03F089
:0814880003010F6B106B120051
:101490000EEC21F0CBEC05F099DC67DC28DDF1ECFB
:1014A00005F07DEC05F0A4EC05F0EDDC7EDE52DE0F
:1014B00066DDA6DE01DF0D0EC16E310EB16EA192AA
:1014C0003C0EB36EB00EB26EA082C00EF26EC80EAD
:1014D000F26EF16A7F0ED36E200E9D6E030E926E39
:1014E000F10E936E800E946E956A010E966E010E4B
:1014F000976E040E986E7E867F6ACF0EAF6EAC84B8
:10150000AEDECA80CA82F90ECB6EA5DE1ADDBFDD63
:10151000816A826A846A856A9490828098908680C3
:101520000401316BFA0E326F5CEC03F004012D6B99
:10153000FA0E2E6FD1DC1EDD1DC300F471DD0A0E24
:101540000401316F55EC03F00D0E0401316F55ECC1
:1015500003F08492849484968498849A849C849ED4
:101560008582859485968598859A859C859E7C0E36
:1015700081140301196F1A6B000E1A17000E1A6FEF
:10158000140E196F000E1A6F0C0E04013B6F86ECDF
:1015900002F0010E04012D6F010E2E6FAD0E2F6FA4
:1015A000030E306F3BEC05F0020E04012D6F040EAC
:1015B0002E6FA20E2F6F030E306F3BEC05F0100E56
:1015C0000B6E390E0C6E0D0E0D6E0D2EFED70C2E01
:1015D000FCD70B2EFAD700000000010E04013B6F70
:1015E00086EC02F0010E04012D6F010E2E6F5D0ED0
:1015F0002F6F030E306F3BEC05F0020E04012D6FD0
:10160000010E2E6F6E0E2F6F030E306F3BEC05F048
:10161000100E0B6E390E0C6E0D0E0D6E0D2EFED7CC
:101620000C2EFCD70B2EFAD700000000010E04018F
:101630003B6F86EC02F01FC329F420C32AF41BC3BE
:101640002BF41CC32CF4010E04012D6F050E2E6F1C
:10165000980E2F6F030E306F3BEC05F0BADC000ED6
:1016600003011A1902E1010E191930E127B102D064
:10167000829201D08282020E0B6E040E0C6EBA0EA4
:101680000D6E0D2EFED70C2EFCD70B2EFAD70000B8
:101690008292A06BA16B010E04013B6F86EC02F0FD
:1016A000010E04012D6F010E2E6F7F0E2F6F030EA2
:1016B000306F3BEC05F0010E04012D6F050E2E6F0F
:1016C000900E2F6F030E306F3BEC05F0000E2819C3
:1016D00002E1010E271901E193DD84A023D011C39B
:1016E00031F412C332F486EC03F000C00FF3000EA5
:1016F000106F010E0F6F000E106F020E0B6E040EB6
:101700000C6EBA0E0D6E0D2EFED70C2EFCD70B2EC6
:10171000FAD7000011C331F412C332F40FC333F40B
:1017200065EC03F0000E0301101902E1010E0F1920
:1017300057E1010E04013B6F86EC02F0010E04013B
:101740002D6F020E2E6F310E2F6F030E306F3BEC9C
:1017500005F0020E04012D6F020E2E6F3F0E2F6F4B
:10176000030E306F3BEC05F00B0E0B6E260E0C6E6D
:101770005D0E0D6E0D2EFED70C2EFCD70B2EFAD75C
:10178000000000000401006B4BDC020E0B6E040E27
:101790000C6EBA0E0D6E0D2EFED70C2EFCD70B2E36
:1017A000FAD70000780E0401006F3ADC340E0C6E9C
:1017B000F10E0D6E0D2EFED70C2EFCD70000000092
:1017C0008282020E0B6E040E0C6EBA0E0D6E0D2E82
:1017D000FED70C2EFCD70B2EFAD700008292A2D790
:1017E000000E03011A1902E10B0E191928E127B1A5
:1017F00002D0829201D08282D00E0C6EC90E0D6E84
:101800000D2EFED70C2EFCD70000000082921E0E7B
:1018100004012925016E000E2A21026E01C029F45F
:1018200002C02AF4800E006E800E0218005C02E1F5
:101830000150F00804E2F00E296F000E2A6F000E2E
:1018400003011A1902E10C0E191926E127B102D081
:10185000829201D08282D00E0C6EC90E0D6E0D2EBA
:10186000FED70C2EFCD70000000082921E0E040151
:10187000295D016E000E2A59026E01C029F402C0D2
:101880002AF4800E006E800E0218005C02E1015006
:10189000000802E3296B2A6B0401000E2A1902E1F9
:1018A000000E291911E1010E2D6F0E0E2E6F290E5B
:1018B0002F6F030E306F3BEC05F0020E0401316F09
:1018C00029C432F45CEC03F0000E04012A1902E191
:1018D0001E0E291911E1010E2D6F0E0E2E6F2D0E09
:1018E0002F6F030E306F3BEC05F0020E0401316FD9
:1018F00029C432F45CEC03F0000E04012A1902E161
:101900003C0E291911E1010E2D6F0E0E2E6F550E92
:101910002F6F030E306F3BEC05F0020E0401316FA8
:1019200029C432F45CEC03F0000E04012A1902E130
:101930005A0E291911E1010E2D6F0E0E2E6F590E40
:101940002F6F030E306F3BEC05F0020E0401316F78
:1019500029C432F45CEC03F0000E04012A1902E100
:10196000780E291911E1010E2D6F0E0E2E6F4D0EFE
:101970002F6F030E306F3BEC05F0020E0401316F48
:1019800029C432F45CEC03F0000E04012A1902E1D0
:10199000960E291911E1010E2D6F0E0E2E6F510EAC
:1019A0002F6F030E306F3BEC05F0020E0401316F18
:1019B00029C432F45CEC03F0000E04012A1902E1A0
:1019C000B40E291911E1010E2D6F0E0E2E6F0B0EA4
:1019D0002F6F030E306F3BEC05F0020E0401316FE8
:1019E00029C432F45CEC03F0000E04012A1902E170
:1019F000D20E291911E1010E2D6F0E0E2E6FFA0E67
:101A00002F6F000E306F3BEC05F0020E0401316FBA
:101A100029C432F45CEC03F0000E04012A1902E13F
:101A2000F00E291911E1010E2D6F0E0E2E6FF60E1C
:101A30002F6F000E306F3BEC05F0020E0401316F8A
:101A400029C432F45CEC03F0000E03011A1902E120
:101A5000040E191928E127B102D0829201D08282A6
:101A6000D00E0C6EC90E0D6E0D2EFED70C2EFCD7AF
:101A70000000000082921E0E04012B25016E000E54
:101A80002C21026E01C02BF402C02CF4800E006EDB
:101A9000800E0218005C02E10150F00804E2F00E32
:101AA0002B6F000E2C6F000E03011A1902E1060EB7
:101AB000191926E127B102D0829201D08282D00E7C
:101AC0000C6EC90E0D6E0D2EFED70C2EFCD700002D
:101AD000000082921E0E04012B5D016E000E2C5937
:101AE000026E01C02BF402C02CF4800E006E800E3A
:101AF0000218005C02E10150000802E32B6B2C6B22
:101B00000401000E2C1902E1000E2B1911E1020E46
:101B10002D6F0E0E2E6FF20E2F6F000E306F3BECFE
:101B200005F0040E0401316F2BC432F45CEC03F0B9
:101B3000000E04012C1902E11E0E2B1911E1020EF8
:101B40002D6F0E0E2E6FFE0E2F6F000E306F3BECC2
:101B500005F0040E0401316F2BC432F45CEC03F089
:101B6000000E04012C1902E13C0E2B1911E1020EAA
:101B70002D6F0E0E2E6F0A0E2F6F010E306F3BEC85
:101B800005F0040E0401316F2BC432F45CEC03F059
:101B9000000E04012C1902E15A0E2B1911E1020E5C
:101BA0002D6F0E0E2E6F060E2F6F010E306F3BEC59
:101BB00005F0040E0401316F2BC432F45CEC03F029
:101BC000000E04012C1902E1780E2B1911E1020E0E
:101BD0002D6F0E0E2E6F020E2F6F010E306F3BEC2D
:101BE00005F0040E0401316F2BC432F45CEC03F0F9
:101BF000000E04012C1902E1960E2B1911E1020EC0
:101C00002D6F0E0E2E6FEE0E2F6F000E306F3BEC11
:101C100005F0040E0401316F2BC432F45CEC03F0C8
:101C2000000E04012C1902E1B40E2B1911E1020E71
:101C30002D6F0E0E2E6FDA0E2F6F000E306F3BECF5
:101C400005F0040E0401316F2BC432F45CEC03F098
:101C5000000E04012C1902E1D20E2B1911E1020E23
:101C60002D6F0E0E2E6FD60E2F6F000E306F3BECC9
:101C700005F0040E0401316F2BC432F45CEC03F068
:101C8000000E04012C1902E1F00E2B1911E1020ED5
:101C90002D6F0E0E2E6FD20E2F6F000E306F3BEC9D
:101CA00005F0040E0401316F2BC432F45CEC03F038
:101CB000030E0301FF5D02E1200EFE5D33E2E9EC5D
:101CC00007F0010E3B6F86EC02F0CBEC05F0010E45
:101CD00004012D6F060E2E6FDE0E2F6F000E306F7B
:101CE0003BEC05F0020E04012D6F050E2E6FE60E83
:101CF0002F6F000E306F3BEC05F08282020E0B6EF0
:101D0000040E0C6EBA0E0D6E0D2EFED70C2EFCD7E7
:101D10000B2EFAD700008292010E04013B6F86EC75
:101D200002F0C6D7000E0001E51902E1010EE41928
:101D3000D8A422D1020E0B6E040E0C6EBA0E0D6EDC
:101D40000D2EFED70C2EFCD70B2EFAD70000C00E9E
:101D500004012D6F030E2E6F0FEC07F02F0E316F65
:101D600055EC03F00301C151630A08E1C4516B0A49
:101D700005E1C751720A02E1D5EC08F0C151310A00
:101D800028E18282020E0B6E040E0C6EBA0E0D6EEE
:101D90000D2EFED70C2EFCD70B2EFAD70000829208
:101DA000C0C3CBF3C1C3CCF3C2C3CDF3C3C3CEF323
:101DB000C4C3CFF3C5C3D0F3C6C3D1F3C7C3D2F3F3
:101DC000C8C3D3F3C9C3D4F3010E0101336F000EAE
:101DD000346F0301C151320A40E18282020E0B6E60
:101DE000040E0C6EBA0E0D6E0D2EFED70C2EFCD707
:101DF0000B2EFAD700008292C0C3E3F3C1C3E4F311
:101E0000C2C3E5F3C3C3E6F3C4C3E7F3C5C3E8F352
:101E1000C6C3E9F3C7C3EAF3C8C3EBF3C9C3ECF322
:101E2000020E0101336F000E346F316B326B010E05
:101E300004012D6F050E2E6F350E2F6F010E306FC2
:101E40003BEC05F0020E04012D6F060E2E6F400EC6
:101E50002F6F010E306F3BEC05F0C151330A44E1A6
:101E60008282020E0B6E040E0C6EBA0E0D6E0D2EDB
:101E7000FED70C2EFCD70B2EFAD700008292C0C3DF
:101E8000EEF3C1C3EFF3C2C3F0F3C3C3F1F3C4C3B2
:101E9000F2F3C5C3F3F3C6C3F4F3C7C3F5F3C8C382
:101EA000F6F3C9C3F7F3010E01013E6F000E3F6F59
:101EB000EFC3E1F3030E336F000E346F010E040124
:101EC0002D6F050E2E6F150E2F6F010E306F3BEC30
:101ED00005F0020E04012D6F060E2E6F0E0E2F6FF1
:101EE000010E306F3BEC05F0C151340A42E18282B1
:101EF000020E0B6E040E0C6EBA0E0D6E0D2EFED77A
:101F00000C2EFCD70B2EFAD700008292C0C3D6F35A
:101F1000C1C3D7F3C2C3D8F3C3C3D9F3C4C3DAF37D
:101F2000C5C3DBF3C6C3DCF3C7C3DDF3C8C3DEF34D
:101F3000C9C3DFF3040E0101336F000E346F010ECD
:101F4000316F000E326F010E04012D6F050E2E6FE2
:101F50001E0E2F6F010E306F3BEC05F0020E0401D8
:101F60002D6F060E2E6F2B0E2F6F010E306F3BEC78
:101F700005F00001E46BE56B000EE51902E1020ECD
:101F8000E419D8A4E2D0020E0B6E040E0C6EBA0E49
:101F90000D6E0D2EFED70C2EFCD70B2EFAD700009F
:101FA000C00E04012D6F030E2E6F29EC07F02F0ECB
:101FB000316F02EC04F00301C151630A08E1C4511E
:101FC0006B0A05E1C751720A02E1D5EC08F0C15174
:101FD000310A28E18282020E0B6E040E0C6EBA0EDC
:101FE0000D6E0D2EFED70C2EFCD70B2EFAD700004F
:101FF0008292C0C3CBF3C1C3CCF3C2C3CDF3C3C37E
:10200000CEF3C4C3CFF3C5C3D0F3C6C3D1F3C7C3A4
:10201000D2F3C8C3D3F3C9C3D4F3010E0101336FA4
:10202000000E346F0301C151320A2AE18282020E8E
:102030000B6E040E0C6EBA0E0D6E0D2EFED70C2E0E
:10204000FCD70B2EFAD700008292C0C3E3F3C1C3C2
:10205000E4F3C2C3E5F3C3C3E6F3C4C3E7F3C5C304
:10206000E8F3C6C3E9F3C7C3EAF3C8C3EBF3C9C3D4
:10207000ECF3020E0101336F000E346F316B326BE3
:102080000301C151330A2EE18282020E0B6E040E4F
:102090000C6EBA0E0D6E0D2EFED70C2EFCD70B2E2D
:1020A000FAD700008292C0C3EEF3C1C3EFF3C2C3FC
:1020B000F0F3C3C3F1F3C4C3F2F3C5C3F3F3C6C370
:1020C000F4F3C7C3F5F3C8C3F6F3C9C3F7F3010EBE
:1020D00001013E6F000E3F6FEFC3E1F3030E336F5C
:1020E000000E346F0301C151340A2CE18282020ECA
:1020F0000B6E040E0C6EBA0E0D6E0D2EFED70C2E4E
:10210000FCD70B2EFAD700008292C0C3D6F3C1C30E
:10211000D7F3C2C3D8F3C3C3D9F3C4C3DAF3C5C377
:10212000DBF3C6C3DCF3C7C3DDF3C8C3DEF3C9C347
:10213000DFF3040E0101336F000E346F010E316FB7
:10214000000E326F0001E46BE56B000E03011A19FB
:1021500002E1020E191953E1000E0101341902E1E6
:10216000000E33194CE0000E2A1902E1010E291964
:1021700046E1020E0B6E860E0C6E990E0D6E0D2E44
:10218000FED70C2EFCD70B2EFAD7010E276F000EB0
:10219000286F296B2A6B366A376A3C0E346E000E44
:1021A000356E780E326E000E336E8282020E0B6E2A
:1021B000040E0C6EBA0E0D6E0D2EFED70C2EFCD733
:1021C0000B2EFAD700008292010E386E000E396E87
:1021D000010E3E6E000E3F6E010E3C6E000E3D6E17
:1021E000010E3A6E000E3B6E306A316A286A296A27
:1021F000020E0301A06F000EA16F9D6AA36A000E7C
:102200000101281902E1010E2719D8A413EF16F0D5
:102210000301CC51300AD8B413EF16F0000E271882
:1022200002E1000E261806E1010E266E000E276E52
:10223000246A256A000E271802E1010E261811E112
:10224000800E2518006E800E005C02E1020E245CF8
:1022500008E204012151020802E120518C08D8A0B3
:102260008484800E2518006E800E005C02E1030E4F
:10227000245C0BE3000E271802E1010E261805E18D
:10228000266A276A246A256A8494800E006E800E6E
:102290002B18005C02E12A50080843E2000E2F18B8
:1022A00002E1000E2E183DE10401020E316FF00E26
:1022B000326F5CEC03F0040E0401316FF00E326FEC
:1022C0005CEC03F00401316BF00E326F5CEC03F058
:1022D000010E0401316FF00E326F5CEC03F0030E5F
:1022E0000401316FF00E326F5CEC03F0050E040157
:1022F000316FF00E326F5CEC03F00B0E0B6E260E9E
:102300000C6E5D0E0D6E0D2EFED70C2EFCD70B2E17
:10231000FAD700000000010E2E6E000E2F6E2A6A02
:102320002B6A800E006E800E2B18005C02E12A5092
:10233000020818E2000E2F1802E1010E2E1812E119
:10234000020E0401316F29C432F45CEC03F0040E78
:102350000401316F2BC432F45CEC03F02A6A2B6A5F
:102360002E6A2F6A000E0101341902E1020E3319A0
:10237000D8A46FD1000E3F1902E1000E3E19D8A477
:1023800068D134C031F435C032F4BD0E0401336F6E
:10239000030E346FC8EC02F0020E2D6F060E2E6F86
:1023A000BD0E2F6F030E306F3BEC05F0800E006EFC
:1023B000800E3518005C02E134501E085DE2800E8C
:1023C000006E800E3518005C02E134503C0854E386
:1023D0000301CC51310A50E1000E391802E1010E1F
:1023E000381811E18282020E0B6E040E0C6EBA0ECA
:1023F0000D6E0D2EFED70C2EFCD70B2EFAD700003B
:102400008292386A396ACDC317F4CEC318F4CFC3A9
:1024100019F4D0C31AF4D1C31BF4D2C31CF4D3C330
:102420001DF4D4C31EF418EC06F004011B514E0A2F
:102430000BE1010E2C6E000E2D6E8482AAEC08F0CA
:102440000401006B10EC08F004011B514F0A09E174
:102450008492BFEC07F02C6A2D6A1DC300F410ECC7
:1024600008F0010E04012D6F040E2E6F400E2F6F29
:10247000000E306F3BEC05F0800E006E800E3518BC
:10248000005C02E134501E0854E30301E451320AB7
:1024900050E1000E3F1802E1010E3E1811E1828268
:1024A000020E0B6E040E0C6EBA0E0D6E0D2EFED7C4
:1024B0000C2EFCD70B2EFAD7000082923E6A3F6AA0
:1024C000E5C317F4E6C318F4E7C319F4E8C31AF434
:1024D000E9C31BF4EAC31CF4EBC31DF4ECC31EF404
:1024E00018EC06F004011B514E0A0BE1010E2C6E94
:1024F000000E2D6E8482AAEC08F00401006B10EC33
:1025000008F004011B514F0A09E18492BFEC07F067
:102510002C6A2D6A1DC300F410EC08F0010E0401B2
:102520002D6F040E2E6FA20E2F6F000E306F3BEC3E
:1025300005F00301E151330AD8B48BD0000E3518F1
:1025400002E1000E3418D8A484D0000E01013F1916
:1025500002E1010E3E197DE0849284948496849871
:10256000849A849C849E276B286B3E6B3F6B03018F
:10257000E16B010E0101296F000E2A6F300E04017C
:10258000156F300E166F300E176F300E186F300E3D
:10259000196F300E1A6F300E1B6F300E1C6F300E1D
:1025A0001D6F300E1E6F300E0301CC6F300EE46FC6
:1025B0008282030E0B6E8A0E0C6E550E0D6E0D2E62
:1025C000FED70C2EFCD70B2EFAD70000000082920B
:1025D000366A376A010E04013B6F86EC02F0010E89
:1025E00004012D6F060E2E6F9C0E2F6F000E306FA4
:1025F0003BEC05F0020E04012D6F060E2E6F960EB9
:102600002F6F000E306F3BEC05F00B0E0B6E260E9D
:102610000C6E5D0E0D6E0D2EFED70C2EFCD70B2E04
:10262000FAD700000000010E04013B6F86EC02F0B7
:10263000010E04012D6F050E2E6FAC0E2F6F000ED4
:10264000306F3BEC05F0200E9D6E200EA36EA06B4C
:10265000A16B000E0101341902E1040E3319D8A454
:10266000E2D2000E271802E1000E261806E1010E44
:10267000266E000E276E246A256A000E271802E1D6
:10268000010E261811E1800E2518006E800E005CE8
:1026900002E1020E245C08E204012151020802E179
:1026A00020518C08D8A08484800E2518006E800EDE
:1026B000005C02E1030E245C0BE3000E271802E12C
:1026C000010E261805E1266A276A246A256A849481
:1026D000800E006E800E2B18005C02E12A50080864
:1026E00043E2000E2F1802E1000E2E183DE1040116
:1026F000020E316FF00E326F5CEC03F0040E040139
:10270000316FF00E326F5CEC03F00401316BF00EB0
:10271000326F5CEC03F0010E0401316FF00E326F8A
:102720005CEC03F0030E0401316FF00E326F5CECD1
:1027300003F0050E0401316FF00E326F5CEC03F014
:102740000B0E0B6E260E0C6E5D0E0D6E0D2EFED753
:102750000C2EFCD70B2EFAD700000000010E2E6EB7
:10276000000E2F6E2A6A2B6A800E006E800E2B18C8
:10277000005C02E12A50020818E2000E2F1802E164
:10278000010E2E1812E1020E0401316F29C432F439
:102790005CEC03F0040E0401316F2BC432F45CECEA
:1027A00003F02A6A2B6A2E6A2F6A32C031F433C0D2
:1027B00032F4BD0E0401336F030E346FC8EC02F027
:1027C000020E2D6F060E2E6FBD0E2F6F030E306F93
:1027D0003BEC05F0800E006E800E3318005C02E1C9
:1027E00032505A085DE2800E006E800E3318005C95
:1027F00002E13250780854E30301CC51310A50E130
:10280000000E391802E1010E381811E18282020E21
:102810000B6E040E0C6EBA0E0D6E0D2EFED70C2E26
:10282000FCD70B2EFAD700008292386A396ACDC3E2
:1028300017F4CEC318F4CFC319F4D0C31AF4D1C31C
:102840001BF4D2C31CF4D3C31DF4D4C31EF418EC80
:1028500006F004011B514E0A0BE1010E2C6E000E16
:102860002D6E8482AAEC08F00401006B10EC08F0D5
:1028700004011B514F0A09E18492BFEC07F02C6A56
:102880002D6A1DC300F410EC08F0010E04012D6F39
:10289000040E2E6FC80E2F6F000E306F3BEC05F04C
:1028A000800E006E800E3318005C02E132503C084E
:1028B0005DE2800E006E800E3318005C02E1325043
:1028C0005A0854E30301E451320A50E1000E3F1864
:1028D00002E1010E3E1811E18282020E0B6E040E1F
:1028E0000C6EBA0E0D6E0D2EFED70C2EFCD70B2ED5
:1028F000FAD7000082923E6A3F6AE5C317F4E6C346
:1029000018F4E7C319F4E8C31AF4E9C31BF4EAC3E3
:102910001CF4EBC31DF4ECC31EF418EC06F0040128
:102920001B514E0A0BE1010E2C6E000E2D6E84829F
:10293000AAEC08F00401006B10EC08F004011B5134
:102940004F0A09E18492BFEC07F02C6A2D6A1DC37F
:1029500000F410EC08F0010E04012D6F040E2E6F30
:10296000BE0E2F6F000E306F3BEC05F0800E006E38
:10297000800E3318005C02E132501E0860E2800EC7
:10298000006E800E3318005C02E132503C0857E3C1
:10299000000E01013F1902E1010E3E1950E1010E46
:1029A00004012D6F040E2E6FB40E2F6F000E306FCA
:1029B0003BEC05F0000E3D1802E1010E3C1811E160
:1029C0008282020E0B6E040E0C6EBA0E0D6E0D2E70
:1029D000FED70C2EFCD70B2EFAD7000082923C6A51
:1029E0003D6AF0C317F4F1C318F4F2C319F4F3C34A
:1029F0001AF4F4C31BF4F5C31CF4F6C31DF4F7C3B7
:102A00001EF418EC06F004011B514E0A0BE1010EF6
:102A10002C6E000E2D6E8482AAEC08F00401006B6F
:102A200010EC08F004011B514F0A09E18492BFEC3D
:102A300007F02C6A2D6A1DC300F410EC08F0800E1C
:102A4000006E800E3318005C02E132501E085BE31A
:102A5000000E01013F1902E1010E3E1954E103018C
:102A6000D751340A50E1000E3B1802E1010E3A182A
:102A700011E18282020E0B6E040E0C6EBA0E0D6E08
:102A80000D2EFED70C2EFCD70B2EFAD7000082920B
:102A90003A6A3B6AD8C317F4D9C318F4DAC319F4F5
:102AA000DBC31AF4DCC31BF4DDC31CF4DEC31DF46A
:102AB000DFC31EF418EC06F004011B514E0A0BE1B3
:102AC000010E2C6E000E2D6E8482AAEC08F004011B
:102AD000006B10EC08F004011B514F0A09E18492CD
:102AE000BFEC07F02C6A2D6A1DC300F410EC08F04F
:102AF000010E04012D6F040E2E6F8C0E2F6F000E31
:102B0000306F3BEC05F0000E331802E1000E321876
:102B1000D8A489D0000E01013F1902E1010E3E192F
:102B2000D8A481D08492849484968498849A849C36
:102B3000849E276B286B0301E16B01013E6B3F6BA9
:102B4000010E296F000E2A6F300E0401156F300E32
:102B5000166F300E176F300E186F300E196F300E63
:102B60001A6F300E1B6F300E1C6F300E1D6F300E43
:102B70001E6F300E0301CC6F300EE46F300EEF6F1E
:102B8000300ED76F8282030E0B6E8A0E0C6E550EBE
:102B90000D6E0D2EFED70C2EFCD70B2EFAD7000093
:102BA00000008292366A376A010E04013B6F86ECA0
:102BB00002F0010E04012D6F060E2E6F580E2F6FBE
:102BC000000E306F3BEC05F0020E04012D6F060E77
:102BD0002E6F520E2F6F000E306F3BEC05F00B0E78
:102BE0000B6E260E0C6E5D0E0D6E0D2EFED70C2E8E
:102BF000FCD70B2EFAD700000000010E04013B6F3A
:102C000086EC02F0010E04012D6F050E2E6F4A0EA8
:102C10002F6F000E306F3BEC05F0200E9D6E200EE6
:102C2000A36EA06BA16B000E2D1802E1000E2C18F4
:102C300002E1BFEC07F00301FF51030802E1FE517E
:102C4000200808E2FF51030802E1FE514D0802E3AB
:102C5000E6EC06F0FF51030802E1FE514D0808E2E0
:102C6000FF51030802E1FE517A0802E3B5EC06F0D9
:102C7000FF51030802E1FE517A0808E2FF51030800
:102C800002E1FE51A70802E377EC07F0FF510308C9
:102C900002E1FE51A70808E2FF51030802E1FE51DC
:102CA000D40802E3F1EC05F0FF51030802E1FE5104
:102CB000D40808E2FF51030802E1FE51FF0802E3D5
:102CC000A4EC05F0000E1A1902E1080E1919D8A497
:102CD0000EEF1FF0000EA11902E1000EA019D8A4FA
:102CE0000EEF1FF0010E04013B6F86EC02F0020EA6
:102CF0000B6E040E0C6EBA0E0D6E0D2EFED70C2E42
:102D0000FCD70B2EFAD70000010E04013B6F86ECB6
:102D100002F027B102D0829201D08282D00E0C6ED6
:102D2000C90E0D6E0D2EFED70C2EFCD70000000034
:102D30008292010E04012D6F010E2E6F5E0E2F6F19
:102D4000000E306F3BEC05F0020E04012D6F030EF8
:102D50002E6F810E2F6F000E306F3BEC05F0010ED1
:102D6000A06F000EA16F0301000EA11902E1010E78
:102D7000A019D8A40EEF1FF0000E1A1902E1090ED7
:102D8000191939E1020E0B6E380E0C6EAD0E0D6E78
:102D90000D2EFED70C2EFCD70B2EFAD7010E0401F8
:102DA0003B6F86EC02F027B102D0829201D0828282
:102DB000D00E0C6EC90E0D6E0D2EFED70C2EFCD74C
:102DC00000000000829200017F4B802B800E006E7D
:102DD000800E8019005C02E17F51050804E2050EB7
:102DE0007F6F000E806F000E03011A1902E1060EBC
:102DF000191901E1F8D7000E1A1902E1070E191985
:102E00003BE1020E0B6E380E0C6EAD0E0D6E0D2EEC
:102E1000FED70C2EFCD70B2EFAD7010E04013B6F08
:102E200086EC02F027B102D0829201D08282D00ECD
:102E30000C6EC90E0D6E0D2EFED70C2EFCD70000A9
:102E400000008292010E00017F5F000E805B800E09
:102E5000006E800E8019005C02E17F51010804E3DE
:102E6000010E7F6F000E806F000E03011A1902E140
:102E7000040E191901E1F8D7000E1A1902E1010E2A
:102E800019195EE1800E1A19006E800E005C02E1D5
:102E90000F0E195D07E2090E0D6E0D2EFED7000014
:102EA0000000F0D700017F6B806B030127B102D0D7
:102EB000829201D08282020E0B6E040E0C6EBA0E4C
:102EC0000D6E0D2EFED70C2EFCD70B2EFAD7000060
:102ED0008292A06BA16B010E04012D6F010E2E6F6B
:102EE0006E0E2F6F000E306F3BEC05F0820E0C6EF5
:102EF000DD0E0D6E0D2EFED70C2EFCD7000000004F
:102F0000020E04012D6F010E2E6F460E2F6F010E63
:102F1000306F3BEC05F0820E0C6EDD0E0D6E0D2E4B
:102F2000FED70C2EFCD700000000010E04012D6F0F
:102F3000050E2E6F860E2F6F020E306F3BEC05F0E4
:102F4000000E0001801902E1010E7F19D8A47FD183
:102F500021C331F422C332F486EC03F000C01FF326
:102F6000000E0301206F010E04012D6F010E2E6F64
:102F7000770E2F6F020E306F3BEC05F0020E04014E
:102F80002D6F030E2E6F6B0E2F6F020E306F3BEC0A
:102F900005F0000E1A1902E1000E191934E127B1EB
:102FA00002D0829201D08282D00E0C6EC90E0D6EBC
:102FB0000D2EFED70C2EFCD7000000008292B60E1C
:102FC0000C6ED00E0D6E0D2EFED70C2EFCD7000011
:102FD0001E0E1F25016E000E2021026E01C01FF380
:102FE00002C020F3800E006E800E0218005C02E129
:102FF0000150F00804E2F00E1F6F000E206F1FC397
:1030000029F420C32AF4000E1A1902E1050E191939
:1030100032E127B102D0829201D08282D00E0C6EB2
:10302000C90E0D6E0D2EFED70C2EFCD70000000031
:103030008292B60E0C6ED00E0D6E0D2EFED70C2E9B
:10304000FCD700001E0E1F5D016E000E2059026E9F
:1030500001C01FF302C020F3800E006E800E021824
:10306000005C02E10150000802E31F6B206B1FC3EC
:1030700029F420C32AF4000E04012A1902E1000EEB
:10308000291911E1010E2D6F100E2E6F8E0E2F6F6C
:10309000020E306F3BEC05F0040E0401316F1FC3CC
:1030A00032F45CEC03F0000E04012A1902E11E0E5A
:1030B000291911E1010E2D6F100E2E6F940E2F6F36
:1030C000020E306F3BEC05F0040E0401316F1FC39C
:1030D00032F45CEC03F0000E04012A1902E13C0E0C
:1030E000291911E1010E2D6F100E2E6F920E2F6F08
:1030F000020E306F3BEC05F0040E0401316F1FC36C
:1031000032F45CEC03F0000E04012A1902E15A0EBD
:10311000291911E1010E2D6F100E2E6F900E2F6FD9
:10312000020E306F3BEC05F0040E0401316F1FC33B
:1031300032F45CEC03F0000E04012A1902E1780E6F
:10314000291911E1010E2D6F100E2E6F690E2F6FD0
:10315000020E306F3BEC05F0040E0401316F1FC30B
:1031600032F45CEC03F0000E04012A1902E1960E21
:10317000291911E1010E2D6F100E2E6F4C0E2F6FBD
:10318000020E306F3BEC05F0040E0401316F1FC3DB
:1031900032F45CEC03F0000E04012A1902E1B40ED3
:1031A000291911E1010E2D6F100E2E6F4A0E2F6F8F
:1031B000020E306F3BEC05F0040E0401316F1FC3AB
:1031C00032F45CEC03F0000E04012A1902E1D20E85
:1031D000291911E1010E2D6F100E2E6F480E2F6F61
:1031E000020E306F3BEC05F0040E0401316F1FC37B
:1031F00032F45CEC03F0000E04012A1902E1F00E37
:10320000291911E1010E2D6F100E2E6F4E0E2F6F2A
:10321000020E306F3BEC05F0040E0401316F1FC34A
:1032200032F45CEC03F021C331F422C332F41FC347
:1032300033F465EC03F0020E0B6E860E0C6E990EE5
:103240000D6E0D2EFED70C2EFCD70B2EFAD7000ECE
:103250000001801902E1020E7F19D8A47FD115C3A5
:1032600031F416C332F486EC03F000C01BF3000EF9
:1032700003011C6F010E04012D6F010E2E6F5E0EF7
:103280002F6F020E306F3BEC05F0020E04012D6F24
:10329000030E2E6F520E2F6F020E306F3BEC05F0B7
:1032A000000E1A1902E1000E191934E1B60E0C6E67
:1032B000D00E0D6E0D2EFED70C2EFCD7000027B1C0
:1032C00002D0829201D08282D00E0C6EC90E0D6E99
:1032D0000D2EFED70C2EFCD70000000082921E0E91
:1032E0001B25016E000E1C21026E01C01BF302C0E3
:1032F0001CF3800E006E800E0218005C02E101508B
:10330000F00804E2F00E1B6F000E1C6F1BC32BF4C1
:103310001CC32CF4000E1A1902E1050E191932E132
:10332000B60E0C6ED00E0D6E0D2EFED70C2EFCD7E9
:10333000000027B102D0829201D08282D00E0C6EA2
:10334000C90E0D6E0D2EFED70C2EFCD7000000000E
:1033500082921E0E1B5D016E000E1C59026E01C092
:103360001BF302C01CF3800E006E800E0218005C7E
:1033700002E10150000802E31B6B1C6B1BC32BF422
:103380001CC32CF4000E04012C1902E1000E2B19B1
:1033900011E1010E2D6F0D0E2E6F500E2F6F020ECC
:1033A000306F3BEC05F0020E0401316F1BC332F4A9
:1033B0005CEC03F0000E04012C1902E11E0E2B1927
:1033C00011E1010E2D6F0D0E2E6F960E2F6F020E56
:1033D000306F3BEC05F0020E0401316F1BC332F479
:1033E0005CEC03F0000E04012C1902E13C0E2B19D9
:1033F00011E1010E2D6F0D0E2E6F010E2F6F030EBA
:10340000306F3BEC05F0020E0401316F1BC332F448
:103410005CEC03F0000E04012C1902E15A0E2B198A
:1034200011E1010E2D6F0D0E2E6FFF0E2F6F020E8C
:10343000306F3BEC05F0020E0401316F1BC332F418
:103440005CEC03F0000E04012C1902E1780E2B193C
:1034500011E1010E2D6F0D0E2E6FFD0E2F6F020E5E
:10346000306F3BEC05F0020E0401316F1BC332F4E8
:103470005CEC03F0000E04012C1902E1960E2B19EE
:1034800011E1010E2D6F0D0E2E6F030E2F6F030E27
:10349000306F3BEC05F0020E0401316F1BC332F4B8
:1034A0005CEC03F0000E04012C1902E1B40E2B19A0
:1034B00011E1010E2D6F0D0E2E6F090E2F6F030EF1
:1034C000306F3BEC05F0020E0401316F1BC332F488
:1034D0005CEC03F0000E04012C1902E1D20E2B1952
:1034E00011E1010E2D6F0D0E2E6F070E2F6F030EC3
:1034F000306F3BEC05F0020E0401316F1BC332F458
:103500005CEC03F0000E04012C1902E1F00E2B1903
:1035100011E1010E2D6F0D0E2E6F050E2F6F030E94
:10352000306F3BEC05F0020E0401316F1BC332F427
:103530005CEC03F015C331F416C332F41BC333F44F
:1035400065EC03F0020E0B6E860E0C6E990E0D6E7E
:103550000D2EFED70C2EFCD70B2EFAD7000E000135
:10356000801902E1030E7F19D8A4A3D025C331F43A
:1035700026C332F486EC03F000C01DF3000E0301F5
:103580001E6F000E1A1902E1000E191930E1B60E75
:103590000C6ED00E0D6E0D2EFED70C2EFCD700003B
:1035A00027B102D0829201D08282D00E0C6EC90E59
:1035B0000D6E0D2EFED70C2EFCD70000000082925F
:1035C0001E0E1D25016E000E1E21026E01C01DF390
:1035D00002C01EF3800E006E800E0218005C02E135
:1035E0000150F00804E2F00E1D6F000E1E6F000E79
:1035F0001A1902E1050E19192EE1B60E0C6ED00E45
:103600000D6E0D2EFED70C2EFCD7000027B102D078
:10361000829201D08282D00E0C6EC90E0D6E0D2EDC
:10362000FED70C2EFCD70000000082921E0E1D5DFE
:10363000016E000E1E59026E01C01DF302C01EF382
:10364000800E006E800E0218005C02E1015000083E
:1036500002E31D6B1E6B010E04012D6F010E2E6F18
:10366000ED0E2F6F020E306F3BEC05F0020E0401E1
:103670002D6F030E2E6FB40E2F6F020E306F3BECCA
:1036800005F01DC300F410EC08F025C331F426C387
:1036900032F41DC333F465EC03F0020E0B6E860E9C
:1036A0000C6E990E0D6E0D2EFED70C2EFCD70B2E28
:1036B000FAD7000E0001801902E1050E7F19D8A487
:1036C00014D3010E04012D6F010E2E6FA40E2F6F67
:1036D000020E306F3BEC05F0020E04012D6F030E5D
:1036E0002E6F980E2F6F020E306F3BEC05F0020E1E
:1036F0000B6E860E0C6E990E0D6E0D2EFED70C2ED7
:10370000FCD70B2EFAD7000E1A1902E1030E191975
:1037100005E1010E0201C06F000EC16F0201000E33
:10372000C11902E1010EC019D8A4DFD2010E0401B3
:103730003B6F86EC02F0010E04012D6F030E2E6F1D
:10374000E00E2F6F020E306F3BEC05F084928494F4
:1037500084968498849A849C848E020E04012D6F32
:10376000020E2E6FD10E2F6F020E306F3BEC05F064
:10377000330E0B6EBB0E0C6EDF0E0D6E0D2EFED7D4
:103780000C2EFCD70B2EFAD70000000084928494F4
:1037900084968498849A848C849E020E04012D6FF2
:1037A000020E2E6FC20E2F6F020E306F3BEC05F033
:1037B000330E0B6EBB0E0C6EDF0E0D6E0D2EFED794
:1037C0000C2EFCD70B2EFAD70000000084928494B4
:1037D00084968488849A849C849E020E04012D6FB2
:1037E000020E2E6FD50E2F6F010E306F3BEC05F0E1
:1037F000330E0B6EBB0E0C6EDF0E0D6E0D2EFED754
:103800000C2EFCD70B2EFAD7000000008492849473
:1038100084968498848A849C849E020E04012D6F71
:10382000020E2E6FC60E2F6F010E306F3BEC05F0AF
:10383000330E0B6EBB0E0C6EDF0E0D6E0D2EFED713
:103840000C2EFCD70B2EFAD7000000008492849433
:1038500084868498849A849C849E020E04012D6F31
:10386000020E2E6FB70E2F6F010E306F3BEC05F07E
:10387000330E0B6EBB0E0C6EDF0E0D6E0D2EFED7D3
:103880000C2EFCD70B2EFAD7000000008492848403
:1038900084968498849A849C849E020E04012D6FE1
:1038A000020E2E6FE40E2F6F010E306F3BEC05F011
:1038B000330E0B6EBB0E0C6EDF0E0D6E0D2EFED793
:1038C0000C2EFCD70B2EFAD70000000084828494C3
:1038D00084968498849A849C849E020E04012D6FA1
:1038E000020E2E6F090E2F6F020E306F3BEC05F0AB
:1038F0000401006B10EC08F0330E0B6EBB0E0C6E67
:10390000DF0E0D6E0D2EFED70C2EFCD70B2EFAD728
:10391000000000001DC300F410EC08F00201C06BB1
:10392000C16B00017F6B806B010E04013B6F86EC65
:1039300002F00B0E0B6E260E0C6E5D0E0D6E0D2E34
:10394000FED70C2EFCD70B2EFAD700000000010E7C
:1039500004012D6F030E2E6FFD0E2F6F010E306FC1
:103960003BEC05F08492849484968498849A849C99
:10397000848E0401316B326B5CEC03F0020E0401A7
:10398000316F326B5CEC03F0040E0401316F326B6B
:103990005CEC03F0010E0401316F326B5CEC03F060
:1039A000030E0401316F326B5CEC03F0050E040171
:1039B000316F326B5CEC03F0020E04012D6F030ECD
:1039C0002E6FF30E2F6F010E306F3BEC05F0150ECE
:1039D0000B6E4B0E0C6EBE0E0D6E0D2EFED70C2E0A
:1039E000FCD70B2EFAD700000401316B370E326F73
:1039F0005CEC03F0020E0401316F370E326F5CECA9
:103A000003F0040E0401316F370E326F5CEC03F0EB
:103A1000010E0401316F370E326F5CEC03F0030EC0
:103A20000401316F370E326F5CEC03F0050E0401B8
:103A3000316F370E326F5CEC03F0020E04012D6F14
:103A4000030E2E6FAC0E2F6F010E306F3BEC05F0A6
:103A5000330E0B6EBB0E0C6EDF0E0D6E0D2EFED7F1
:103A60000C2EFCD70B2EFAD7000000000401316B9E
:103A70006E0E326F5CEC03F0020E0401316F6E0EBD
:103A8000326F5CEC03F0040E0401316F6E0E326F86
:103A90005CEC03F0010E0401316F6E0E326F5CECD2
:103AA00003F0030E0401316F6E0E326F5CEC03F015
:103AB000050E0401316F6E0E326F5CEC03F0020EE6
:103AC00004012D6F030E2E6F6E0E2F6F010E306FDF
:103AD0003BEC05F0330E0B6EBB0E0C6EDF0E0D6E65
:103AE0000D2EFED70C2EFCD70B2EFAD700000000AF
:103AF0000401316BA50E326F5CEC03F0020E040181
:103B0000316FA50E326F5CEC03F0040E0401316FCF
:103B1000A50E326F5CEC03F0010E0401316FA50EAF
:103B2000326F5CEC03F0030E0401316FA50E326FAF
:103B30005CEC03F0050E0401316FA50E326F5CECF6
:103B400003F0020E04012D6F030E2E6F630E2F6F14
:103B5000010E306F3BEC05F0330E0B6EBB0E0C6E9E
:103B6000DF0E0D6E0D2EFED70C2EFCD70B2EFAD7C6
:103B7000000000000401316BDC0E326F5CEC03F0DE
:103B8000020E0401316FDC0E326F5CEC03F0040EA8
:103B90000401316FDC0E326F5CEC03F0010E0401A6
:103BA000316FDC0E326F5CEC03F0030E0401316FF9
:103BB000DC0E326F5CEC03F0050E0401316FDC0E9D
:103BC000326F5CEC03F0020E04012D6F030E2E6FBA
:103BD000570E2F6F010E306F3BEC05F0330E0B6E5E
:103BE000BB0E0C6EDF0E0D6E0D2EFED70C2EFCD70D
:103BF0000B2EFAD700000000010E04013B6F86EC8B
:103C000002F0010E04012D6F040E2E6F790E2F6F3E
:103C1000010E306F3BEC05F00B0E0B6E260E0C6E9A
:103C20005D0E0D6E0D2EFED70C2EFCD70B2EFAD787
:103C3000000000000401316B326B5CEC03F0020EFB
:103C40000401316F326B5CEC03F0040E0401316F40
:103C5000326B5CEC03F0010E0401316F326B5CECF3
:103C600003F0030E0401316F326B5CEC03F0050EC0
:103C70000401316F326B5CEC03F0010E04012D6F17
:103C8000010E2E6F9B0E2F6F010E306F3BEC05F077
:103C9000020E04012D6F010E2E6F8A0E2F6F010E82
:103CA000306F3BEC05F00B0E0B6E260E0C6E5D0EAE
:103CB0000D6E0D2EFED70C2EFCD70B2EFAD7000062
:103CC0000000010E04013B6F86EC02F0060E0B6E45
:103CD000130E0C6EAD0E0D6E0D2EFED70C2EFCD7F6
:103CE0000B2EFAD700000000C8D7000E0001801983
:103CF00002E1040E7F19D8A48FD023C331F424C36A
:103D000032F486EC03F000C027F3000E0301286FA5
:103D1000010E04012D6F010E2E6F840E2F6F010E08
:103D2000306F3BEC05F0020E04012D6F030E2E6F79
:103D3000180E2F6F020E306F3BEC05F0000E1A19B3
:103D400002E1000E191911E1020E0B6E040E0C6E49
:103D5000BA0E0D6E0D2EFED70C2EFCD70B2EFAD7F9
:103D60000000010E276F000E286F000E1A1902E1E5
:103D7000050E19190FE1020E0B6E040E0C6EBA0E31
:103D80000D6E0D2EFED70C2EFCD70B2EFAD7000091
:103D9000276B286B23C331F424C332F427C333F4D5
:103DA00065EC03F0000E0301281902E1000E27194B
:103DB0000BE1010E04012D6F010E2E6F3A0E2F6FD5
:103DC000020E306F3BEC05F0000E281902E1010EE7
:103DD000271916E1010E04012D6F010E2E6F2E0E14
:103DE0002F6F020E306F3BEC05F0010E04012D6FBA
:103DF0000C0E2E6F2C0E2F6F020E306F3BEC05F069
:103E0000020E0B6E860E0C6E990E0D6E0D2EFED7E9
:103E10000C2EFCD70B2EFAD7B3EF16F02EEF0BF0CB
:023E2000FFD7CA
:10421C0010EE24F0990E006E040E016E220EF66E56
:0E422C003E0EF76E000EF86EDEEC06F012008D
:023E220000009E
:023E240000009C
:023E260000009A
:023E2800000098
:023E2A00000096
:023E2C00000094
:023E2E00000092
:023E3000780018
:023E32003C0052
:023E340000008C
:023E360000008A
:023E3800000088
:023E3A00000086
:023E3C00000084
:0A3E3E00312F32207365616E7300AE
:083E48004E2E534F554E44006D
:063E5000424954544900F0
:063E56005345414E5300EC
:103E5C002A2041796172204D656E757375202A0098
:103E6C002020202020202020202020202020202046
:013E7C000045
:023E7D00000043
:0B3E7F003C3C202D20202B203E3E006C
:0A3E8A00342F34207365616E73005D
:063E9400424954544900AC
:063E9A005345414E5300A8
:0A3EA000322F32207365616E73004B
:083EAA004E2E534F554E44000B
:0A3EB200332F34207365616E730036
:0A3EBC00322F34207365616E73002D
:0A3EC600312F34207365616E730024
:043ED0004220380054
:043ED4004220370051
:043ED800422036004E
:063EDC005341524A41006F
:023EE2000000DE
:083EE40054414B494E495A00BC
:043EEC00422035003B
:043EF000422030003C
:043EF4004B20380027
:043EF8004B20370024
:043EFC00422031002F
:043F00004220340027
:043F04004220330024
:043F08004220320021
:073F0C0020202020202000EE
:093F1300202020202020202000A5
:093F1C00205345414E53202000C2
:023F250000009A
:023F2700010097
:063F290048415A49520014
:023F2F00000090
:023F310000008E
:093F3300205345414E53202000AB
:023F3C00000083
:063F3E0048415A495200FF
:103F4400202020202020202020202020202020206D
:013F5400006C
:0C3F550042414C414E53202531303000D9
:0B3F610042414C414E532025373500F3
:0B3F6C0042414C414E532025353000EF
:0B3F7700544553542042495454490063
:063F82004249503D3E00E3
:103F8800204241534C4154494E495A2E2E2E20204E
:013F98000028
:103F990020434948415A492059454E4944454E20F4
:013FA9000017
:0B3FAA0042414C414E532025323500AF
:0F3FB5004D3520204D4F445520414B5449460077
:0F3FC4004D3420204D4F445520414B5449460069
:0F3FD3004D3320204D4F445520414B544946005B
:0F3FE2004C5020204D4F445520414B5449460030
:0A3FF10042414C414E5320253000A0
:0C3FFB0042414C414E53205445535400A9
:0F4007004D494B524F464F4E20414B54494600B6
:0C4016002A3C2020342F3520203E2A00B8
:024022002F006D
:0240240000009A
:02402600000098
:024028002F0067
:02402A00200074
:0C402C004249503D3E20206163696B005A
:0D4038004249503D3E206B6170616C690093
:01404500304A
:02404600370041
:02404800360040
:02404A0035003F
:02404C0038003A
:02404E00300040
:0C4050002A3C2020322F3520203E2A0080
:0B405C00424F4E45205345533D3E00AF
:02406700340023
:0C4069002A3C2020312F3520203E2A0068
:0F4075004B554C414B4C494B205345533D3E005E
:084084004E2E534F554E44002F
:02408C00300002
:02408E003300FD
:024090003200FC
:024092003100FB
:024094003100F9
:0C4096002A3C2020352F3520203E2A0037
:1040A20054455354204241534C41203E204F4B0033
:0C40B2002A3C2020332F3520203E2A001D
:0240BE00000000
:0F40C0004D3220204D4F445520414B544946006E
:0F40CF004D3120204D4F445520414B5449460060
:0D40DE0054455354204241534C4144490085
:1040EB00454B52414E205041524C414B4C494B0099
:0240FB0034008F
:0240FD0033008E
:0240FF0032008D
:02410100350087
:02410300380082
:02410500370081
:02410700360080
:044109004B20360011
:02410D000000B0
:02410F0010009E
:024111000F009D
:024113000E009C
:024115000000A8
:024117000000A6
:024119000000A4
:02411B000000A2
:02411D000000A0
:02411F000D0091
:024121000C0090
:024123000B008F
:02412500000098
:044127004B203000F9
:04412B004B203100F4
:0E412F0054454B4E494B2053455256495300C0
:0E413D00494C45544953494D452047454300E0
:04414B004B203400D1
:04414F004B203500CC
:044153004B203200CB
:044157004B203300C6
:10415B003C3C5665727369796F6E20322E303E3E51
:01416B000053
:10416C003C4D61646520696E205455524B45593E57
:01417C000042
:10417D002020202020202020202020202020202032
:01418D000031
:08418E004E2E534F554E440024
:084196004E2E534F554E44001C
:02419E0000001F
:0B41A0004E4555524F534F554E440002
:1041AB003344205A454B4120594554454E454B000D
:0841BB000E1F11111F1F1F1F31
:0841C300000A150A00040E04B5
:0841CB000E1F11111111111F4B
:0841D3000E1F1111111F1F1F27
:0841DB000E1F111111111F1F2D
:0841E3000000000000000000D4
:0841EB000E1F1F1F1F1F1F1FE5
:0841F3001F1111111F04041F2C
:0841FB00040C150E0E150C0456
:084203000E0E0E150A04040E54
:08420B000000000000000000AB
:084213000E1F111F1F1F1F1FCA
:020000040030CA
:0D000100421F1E038181FFFFC0FFE0FF4092
:00000001FF
